{
  "_format": "hh-sol-artifact-1",
  "contractName": "LookUpContract",
  "sourceName": "contracts/LookUpContract.sol",
  "abi": [
    {
      "anonymous": false,
      "inputs": [
        {
          "indexed": true,
          "internalType": "address",
          "name": "donor",
          "type": "address"
        },
        {
          "indexed": false,
          "internalType": "uint256",
          "name": "amount",
          "type": "uint256"
        }
      ],
      "name": "DonationReceived",
      "type": "event"
    },
    {
      "anonymous": false,
      "inputs": [
        {
          "indexed": true,
          "internalType": "uint256",
          "name": "id",
          "type": "uint256"
        },
        {
          "indexed": true,
          "internalType": "address",
          "name": "owner",
          "type": "address"
        },
        {
          "indexed": true,
          "internalType": "string",
          "name": "token",
          "type": "string"
        }
      ],
      "name": "ERC20TokenListed",
      "type": "event"
    },
    {
      "inputs": [],
      "name": "_donationIndex",
      "outputs": [
        {
          "internalType": "uint256",
          "name": "",
          "type": "uint256"
        }
      ],
      "stateMutability": "view",
      "type": "function"
    },
    {
      "inputs": [],
      "name": "_tokenIndex",
      "outputs": [
        {
          "internalType": "uint256",
          "name": "",
          "type": "uint256"
        }
      ],
      "stateMutability": "view",
      "type": "function"
    },
    {
      "inputs": [
        {
          "internalType": "address",
          "name": "_owner",
          "type": "address"
        },
        {
          "internalType": "string",
          "name": "_tokenSupply",
          "type": "string"
        },
        {
          "internalType": "string",
          "name": "_tokenName",
          "type": "string"
        },
        {
          "internalType": "string",
          "name": "_tokenSymbol",
          "type": "string"
        },
        {
          "internalType": "string",
          "name": "_tokenAddress",
          "type": "string"
        },
        {
          "internalType": "string",
          "name": "_tokenTransactionHash",
          "type": "string"
        },
        {
          "internalType": "string",
          "name": "_tokenCreatedData",
          "type": "string"
        }
      ],
      "name": "createERC20Token",
      "outputs": [
        {
          "internalType": "uint256",
          "name": "",
          "type": "uint256"
        },
        {
          "internalType": "address",
          "name": "",
          "type": "address"
        },
        {
          "internalType": "string",
          "name": "",
          "type": "string"
        },
        {
          "internalType": "string",
          "name": "",
          "type": "string"
        },
        {
          "internalType": "string",
          "name": "",
          "type": "string"
        },
        {
          "internalType": "string",
          "name": "",
          "type": "string"
        }
      ],
      "stateMutability": "payable",
      "type": "function"
    },
    {
      "inputs": [],
      "name": "donate",
      "outputs": [],
      "stateMutability": "payable",
      "type": "function"
    },
    {
      "inputs": [],
      "name": "getAllDonation",
      "outputs": [
        {
          "components": [
            {
              "internalType": "uint256",
              "name": "donationID",
              "type": "uint256"
            },
            {
              "internalType": "address",
              "name": "donor",
              "type": "address"
            },
            {
              "internalType": "uint256",
              "name": "fund",
              "type": "uint256"
            }
          ],
          "internalType": "struct LookUpContract.Donation[]",
          "name": "",
          "type": "tuple[]"
        }
      ],
      "stateMutability": "view",
      "type": "function"
    },
    {
      "inputs": [],
      "name": "getAllERC20TokenListed",
      "outputs": [
        {
          "components": [
            {
              "internalType": "uint256",
              "name": "tokenID",
              "type": "uint256"
            },
            {
              "internalType": "address",
              "name": "owner",
              "type": "address"
            },
            {
              "internalType": "string",
              "name": "tokenSupply",
              "type": "string"
            },
            {
              "internalType": "string",
              "name": "tokenName",
              "type": "string"
            },
            {
              "internalType": "string",
              "name": "tokenSymbol",
              "type": "string"
            },
            {
              "internalType": "string",
              "name": "tokenAddress",
              "type": "string"
            },
            {
              "internalType": "string",
              "name": "tokenTransactionHash",
              "type": "string"
            },
            {
              "internalType": "string",
              "name": "tokenCreatedDate",
              "type": "string"
            }
          ],
          "internalType": "struct LookUpContract.ERC20Token[]",
          "name": "",
          "type": "tuple[]"
        }
      ],
      "stateMutability": "view",
      "type": "function"
    },
    {
      "inputs": [],
      "name": "getContractBalance",
      "outputs": [
        {
          "internalType": "uint256",
          "name": "",
          "type": "uint256"
        }
      ],
      "stateMutability": "view",
      "type": "function"
    },
    {
      "inputs": [
        {
          "internalType": "uint256",
          "name": "_tokenID",
          "type": "uint256"
        }
      ],
      "name": "getERC20Token",
      "outputs": [
        {
          "internalType": "uint256",
          "name": "",
          "type": "uint256"
        },
        {
          "internalType": "address",
          "name": "",
          "type": "address"
        },
        {
          "internalType": "string",
          "name": "",
          "type": "string"
        },
        {
          "internalType": "string",
          "name": "",
          "type": "string"
        },
        {
          "internalType": "string",
          "name": "",
          "type": "string"
        },
        {
          "internalType": "string",
          "name": "",
          "type": "string"
        },
        {
          "internalType": "string",
          "name": "",
          "type": "string"
        },
        {
          "internalType": "string",
          "name": "",
          "type": "string"
        }
      ],
      "stateMutability": "view",
      "type": "function"
    },
    {
      "inputs": [],
      "name": "getERC20TokenListingPrice",
      "outputs": [
        {
          "internalType": "uint256",
          "name": "",
          "type": "uint256"
        }
      ],
      "stateMutability": "view",
      "type": "function"
    },
    {
      "inputs": [
        {
          "internalType": "address",
          "name": "_user",
          "type": "address"
        }
      ],
      "name": "getUserERC20Tokens",
      "outputs": [
        {
          "components": [
            {
              "internalType": "uint256",
              "name": "tokenID",
              "type": "uint256"
            },
            {
              "internalType": "address",
              "name": "owner",
              "type": "address"
            },
            {
              "internalType": "string",
              "name": "tokenSupply",
              "type": "string"
            },
            {
              "internalType": "string",
              "name": "tokenName",
              "type": "string"
            },
            {
              "internalType": "string",
              "name": "tokenSymbol",
              "type": "string"
            },
            {
              "internalType": "string",
              "name": "tokenAddress",
              "type": "string"
            },
            {
              "internalType": "string",
              "name": "tokenTransactionHash",
              "type": "string"
            },
            {
              "internalType": "string",
              "name": "tokenCreatedDate",
              "type": "string"
            }
          ],
          "internalType": "struct LookUpContract.ERC20Token[]",
          "name": "",
          "type": "tuple[]"
        }
      ],
      "stateMutability": "view",
      "type": "function"
    },
    {
      "inputs": [],
      "name": "listingPrice",
      "outputs": [
        {
          "internalType": "uint256",
          "name": "",
          "type": "uint256"
        }
      ],
      "stateMutability": "view",
      "type": "function"
    },
    {
      "inputs": [
        {
          "internalType": "uint256",
          "name": "_listingPrice",
          "type": "uint256"
        },
        {
          "internalType": "address",
          "name": "owner",
          "type": "address"
        }
      ],
      "name": "updateListingPrice",
      "outputs": [],
      "stateMutability": "payable",
      "type": "function"
    },
    {
      "inputs": [],
      "name": "withdraw",
      "outputs": [],
      "stateMutability": "nonpayable",
      "type": "function"
    }
  ],
  "bytecode": "0x608060405273b309098bcb51e5c687a16fa41bd6055f47c9ebb06000806101000a81548173ffffffffffffffffffffffffffffffffffffffff021916908373ffffffffffffffffffffffffffffffffffffffff1602179055506658d15e1762800060015534801561006f57600080fd5b506126ca8061007f6000396000f3fe6080604052600436106100c25760003560e01c806380cad5a61161007f578063a581889a11610059578063a581889a14610252578063b5c6e21f14610287578063c78f19f9146102b2578063ed88c68e146102dd576100c2565b806380cad5a6146101ce5780639463c838146101ea578063a218547714610215576100c2565b80630fbf0e31146100c75780631ec4a8b51461010b5780633ccfd60b1461013657806352e9a1a01461014d5780635b7af131146101785780636f9fb98a146101a3575b600080fd5b3480156100d357600080fd5b506100ee60048036038101906100e99190611c63565b6102e7565b6040516101029897969594939291906122c6565b60405180910390f35b34801561011757600080fd5b50610120610726565b60405161012d919061222e565b60405180910390f35b34801561014257600080fd5b5061014b61072c565b005b34801561015957600080fd5b5061016261086c565b60405161016f919061216a565b60405180910390f35b34801561018457600080fd5b5061018d610a0f565b60405161019a919061218c565b60405180910390f35b3480156101af57600080fd5b506101b8610f15565b6040516101c5919061222e565b60405180910390f35b6101e860048036038101906101e39190611c8c565b610f22565b005b3480156101f657600080fd5b506101ff611049565b60405161020c919061222e565b60405180910390f35b34801561022157600080fd5b5061023c60048036038101906102379190611b0c565b611053565b604051610249919061218c565b60405180910390f35b61026c60048036038101906102679190611b35565b61167a565b60405161027e96959493929190612249565b60405180910390f35b34801561029357600080fd5b5061029c611819565b6040516102a9919061222e565b60405180910390f35b3480156102be57600080fd5b506102c761181f565b6040516102d4919061222e565b60405180910390f35b6102e5611825565b005b6000806060806060806060806000600260008b815260200190815260200160002060405180610100016040529081600082015481526020016001820160009054906101000a900473ffffffffffffffffffffffffffffffffffffffff1673ffffffffffffffffffffffffffffffffffffffff1673ffffffffffffffffffffffffffffffffffffffff1681526020016002820180546103849061254d565b80601f01602080910402602001604051908101604052809291908181526020018280546103b09061254d565b80156103fd5780601f106103d2576101008083540402835291602001916103fd565b820191906000526020600020905b8154815290600101906020018083116103e057829003601f168201915b505050505081526020016003820180546104169061254d565b80601f01602080910402602001604051908101604052809291908181526020018280546104429061254d565b801561048f5780601f106104645761010080835404028352916020019161048f565b820191906000526020600020905b81548152906001019060200180831161047257829003601f168201915b505050505081526020016004820180546104a89061254d565b80601f01602080910402602001604051908101604052809291908181526020018280546104d49061254d565b80156105215780601f106104f657610100808354040283529160200191610521565b820191906000526020600020905b81548152906001019060200180831161050457829003601f168201915b5050505050815260200160058201805461053a9061254d565b80601f01602080910402602001604051908101604052809291908181526020018280546105669061254d565b80156105b35780601f10610588576101008083540402835291602001916105b3565b820191906000526020600020905b81548152906001019060200180831161059657829003601f168201915b505050505081526020016006820180546105cc9061254d565b80601f01602080910402602001604051908101604052809291908181526020018280546105f89061254d565b80156106455780601f1061061a57610100808354040283529160200191610645565b820191906000526020600020905b81548152906001019060200180831161062857829003601f168201915b5050505050815260200160078201805461065e9061254d565b80601f016020809104026020016040519081016040528092919081815260200182805461068a9061254d565b80156106d75780601f106106ac576101008083540402835291602001916106d7565b820191906000526020600020905b8154815290600101906020018083116106ba57829003601f168201915b5050505050815250509050806000015181602001518260400151836060015184608001518560a001518660c001518760e001519850985098509850985098509850985050919395975091939597565b60055481565b60008054906101000a900473ffffffffffffffffffffffffffffffffffffffff1673ffffffffffffffffffffffffffffffffffffffff163373ffffffffffffffffffffffffffffffffffffffff16146107ba576040517f08c379a00000000000000000000000000000000000000000000000000000000081526004016107b1906121ee565b60405180910390fd5b600047905060008111610802576040517f08c379a00000000000000000000000000000000000000000000000000000000081526004016107f99061220e565b60405180910390fd5b60008054906101000a900473ffffffffffffffffffffffffffffffffffffffff1673ffffffffffffffffffffffffffffffffffffffff166108fc829081150290604051600060405180830381858888f19350505050158015610868573d6000803e3d6000fd5b5050565b6060600060055490506000808267ffffffffffffffff8111156108b8577f4e487b7100000000000000000000000000000000000000000000000000000000600052604160045260246000fd5b6040519080825280602002602001820160405280156108f157816020015b6108de611945565b8152602001906001900390816108d65790505b50905060005b83811015610a0557600060018261090e9190612479565b9050600060036000838152602001908152602001600020905080604051806060016040529081600082015481526020016001820160009054906101000a900473ffffffffffffffffffffffffffffffffffffffff1673ffffffffffffffffffffffffffffffffffffffff1673ffffffffffffffffffffffffffffffffffffffff1681526020016002820154815250508486815181106109d6577f4e487b7100000000000000000000000000000000000000000000000000000000600052603260045260246000fd5b60200260200101819052506001856109ee9190612479565b9450505080806109fd9061257f565b9150506108f7565b5080935050505090565b6060600060045490506000808267ffffffffffffffff811115610a5b577f4e487b7100000000000000000000000000000000000000000000000000000000600052604160045260246000fd5b604051908082528060200260200182016040528015610a9457816020015b610a8161197c565b815260200190600190039081610a795790505b50905060005b83811015610f0b576000600182610ab19190612479565b905060006002600083815260200190815260200160002090508060405180610100016040529081600082015481526020016001820160009054906101000a900473ffffffffffffffffffffffffffffffffffffffff1673ffffffffffffffffffffffffffffffffffffffff1673ffffffffffffffffffffffffffffffffffffffff168152602001600282018054610b479061254d565b80601f0160208091040260200160405190810160405280929190818152602001828054610b739061254d565b8015610bc05780601f10610b9557610100808354040283529160200191610bc0565b820191906000526020600020905b815481529060010190602001808311610ba357829003601f168201915b50505050508152602001600382018054610bd99061254d565b80601f0160208091040260200160405190810160405280929190818152602001828054610c059061254d565b8015610c525780601f10610c2757610100808354040283529160200191610c52565b820191906000526020600020905b815481529060010190602001808311610c3557829003601f168201915b50505050508152602001600482018054610c6b9061254d565b80601f0160208091040260200160405190810160405280929190818152602001828054610c979061254d565b8015610ce45780601f10610cb957610100808354040283529160200191610ce4565b820191906000526020600020905b815481529060010190602001808311610cc757829003601f168201915b50505050508152602001600582018054610cfd9061254d565b80601f0160208091040260200160405190810160405280929190818152602001828054610d299061254d565b8015610d765780601f10610d4b57610100808354040283529160200191610d76565b820191906000526020600020905b815481529060010190602001808311610d5957829003601f168201915b50505050508152602001600682018054610d8f9061254d565b80601f0160208091040260200160405190810160405280929190818152602001828054610dbb9061254d565b8015610e085780601f10610ddd57610100808354040283529160200191610e08565b820191906000526020600020905b815481529060010190602001808311610deb57829003601f168201915b50505050508152602001600782018054610e219061254d565b80601f0160208091040260200160405190810160405280929190818152602001828054610e4d9061254d565b8015610e9a5780601f10610e6f57610100808354040283529160200191610e9a565b820191906000526020600020905b815481529060010190602001808311610e7d57829003601f168201915b505050505081525050848681518110610edc577f4e487b7100000000000000000000000000000000000000000000000000000000600052603260045260246000fd5b6020026020010181905250600185610ef49190612479565b945050508080610f039061257f565b915050610a9a565b5080935050505090565b6000804790508091505090565b60008054906101000a900473ffffffffffffffffffffffffffffffffffffffff1673ffffffffffffffffffffffffffffffffffffffff163373ffffffffffffffffffffffffffffffffffffffff1614610fb0576040517f08c379a0000000000000000000000000000000000000000000000000000000008152600401610fa7906121ee565b60405180910390fd5b8073ffffffffffffffffffffffffffffffffffffffff1660008054906101000a900473ffffffffffffffffffffffffffffffffffffffff1673ffffffffffffffffffffffffffffffffffffffff161461103e576040517f08c379a0000000000000000000000000000000000000000000000000000000008152600401611035906121ae565b60405180910390fd5b816001819055505050565b6000600154905090565b60606000600454905060008060005b83811015611103578573ffffffffffffffffffffffffffffffffffffffff16600260006001846110929190612479565b815260200190815260200160002060010160009054906101000a900473ffffffffffffffffffffffffffffffffffffffff1673ffffffffffffffffffffffffffffffffffffffff1614156110f0576001836110ed9190612479565b92505b80806110fb9061257f565b915050611062565b5060008267ffffffffffffffff811115611146577f4e487b7100000000000000000000000000000000000000000000000000000000600052604160045260246000fd5b60405190808252806020026020018201604052801561117f57816020015b61116c61197c565b8152602001906001900390816111645790505b50905060005b8481101561166d578673ffffffffffffffffffffffffffffffffffffffff16600260006001846111b59190612479565b815260200190815260200160002060010160009054906101000a900473ffffffffffffffffffffffffffffffffffffffff1673ffffffffffffffffffffffffffffffffffffffff16141561165a5760006001826112129190612479565b905060006002600083815260200190815260200160002090508060405180610100016040529081600082015481526020016001820160009054906101000a900473ffffffffffffffffffffffffffffffffffffffff1673ffffffffffffffffffffffffffffffffffffffff1673ffffffffffffffffffffffffffffffffffffffff1681526020016002820180546112a89061254d565b80601f01602080910402602001604051908101604052809291908181526020018280546112d49061254d565b80156113215780601f106112f657610100808354040283529160200191611321565b820191906000526020600020905b81548152906001019060200180831161130457829003601f168201915b5050505050815260200160038201805461133a9061254d565b80601f01602080910402602001604051908101604052809291908181526020018280546113669061254d565b80156113b35780601f10611388576101008083540402835291602001916113b3565b820191906000526020600020905b81548152906001019060200180831161139657829003601f168201915b505050505081526020016004820180546113cc9061254d565b80601f01602080910402602001604051908101604052809291908181526020018280546113f89061254d565b80156114455780601f1061141a57610100808354040283529160200191611445565b820191906000526020600020905b81548152906001019060200180831161142857829003601f168201915b5050505050815260200160058201805461145e9061254d565b80601f016020809104026020016040519081016040528092919081815260200182805461148a9061254d565b80156114d75780601f106114ac576101008083540402835291602001916114d7565b820191906000526020600020905b8154815290600101906020018083116114ba57829003601f168201915b505050505081526020016006820180546114f09061254d565b80601f016020809104026020016040519081016040528092919081815260200182805461151c9061254d565b80156115695780601f1061153e57610100808354040283529160200191611569565b820191906000526020600020905b81548152906001019060200180831161154c57829003601f168201915b505050505081526020016007820180546115829061254d565b80601f01602080910402602001604051908101604052809291908181526020018280546115ae9061254d565b80156115fb5780601f106115d0576101008083540402835291602001916115fb565b820191906000526020600020905b8154815290600101906020018083116115de57829003601f168201915b50505050508152505084868151811061163d577f4e487b7100000000000000000000000000000000000000000000000000000000600052603260045260246000fd5b60200260200101819052506001856116559190612479565b945050505b80806116659061257f565b915050611185565b5080945050505050919050565b600080606080606080600460008154809291906116969061257f565b91905055506000600454905060006002600083815260200190815260200160002090508181600001819055508e8160010160006101000a81548173ffffffffffffffffffffffffffffffffffffffff021916908373ffffffffffffffffffffffffffffffffffffffff1602179055508d81600201908051906020019061171d9291906119d7565b508c8160030190805190602001906117369291906119d7565b508b81600401908051906020019061174f9291906119d7565b508a8160050190805190602001906117689291906119d7565b50898160060190805190602001906117819291906119d7565b508881600701908051906020019061179a9291906119d7565b508a6040516117a99190612153565b60405180910390208f73ffffffffffffffffffffffffffffffffffffffff16837f72e070645b8753b7561512bdcd5680da44ba132de789fec82d235d43ec008d9b60405160405180910390a4818f8c8f8f8f97509750975097509750975050509750975097509750975097915050565b60045481565b60015481565b60003411611868576040517f08c379a000000000000000000000000000000000000000000000000000000000815260040161185f906121ce565b60405180910390fd5b6005600081548092919061187b9061257f565b9190505550600060055490506000600360008381526020019081526020016000209050818160000181905550338160010160006101000a81548173ffffffffffffffffffffffffffffffffffffffff021916908373ffffffffffffffffffffffffffffffffffffffff1602179055503481600201819055503373ffffffffffffffffffffffffffffffffffffffff167f264f630d9efa0d07053a31163641d9fcc0adafc9d9e76f1c37c2ce3a558d2c5234604051611939919061222e565b60405180910390a25050565b604051806060016040528060008152602001600073ffffffffffffffffffffffffffffffffffffffff168152602001600081525090565b60405180610100016040528060008152602001600073ffffffffffffffffffffffffffffffffffffffff1681526020016060815260200160608152602001606081526020016060815260200160608152602001606081525090565b8280546119e39061254d565b90600052602060002090601f016020900481019282611a055760008555611a4c565b82601f10611a1e57805160ff1916838001178555611a4c565b82800160010185558215611a4c579182015b82811115611a4b578251825591602001919060010190611a30565b5b509050611a599190611a5d565b5090565b5b80821115611a76576000816000905550600101611a5e565b5090565b6000611a8d611a888461239f565b61236e565b905082815260208101848484011115611aa557600080fd5b611ab084828561250b565b509392505050565b600081359050611ac781612666565b92915050565b600082601f830112611ade57600080fd5b8135611aee848260208601611a7a565b91505092915050565b600081359050611b068161267d565b92915050565b600060208284031215611b1e57600080fd5b6000611b2c84828501611ab8565b91505092915050565b600080600080600080600060e0888a031215611b5057600080fd5b6000611b5e8a828b01611ab8565b975050602088013567ffffffffffffffff811115611b7b57600080fd5b611b878a828b01611acd565b965050604088013567ffffffffffffffff811115611ba457600080fd5b611bb08a828b01611acd565b955050606088013567ffffffffffffffff811115611bcd57600080fd5b611bd98a828b01611acd565b945050608088013567ffffffffffffffff811115611bf657600080fd5b611c028a828b01611acd565b93505060a088013567ffffffffffffffff811115611c1f57600080fd5b611c2b8a828b01611acd565b92505060c088013567ffffffffffffffff811115611c4857600080fd5b611c548a828b01611acd565b91505092959891949750929550565b600060208284031215611c7557600080fd5b6000611c8384828501611af7565b91505092915050565b60008060408385031215611c9f57600080fd5b6000611cad85828601611af7565b9250506020611cbe85828601611ab8565b9150509250929050565b6000611cd48383612020565b60608301905092915050565b6000611cec8383612062565b905092915050565b611cfd816124cf565b82525050565b611d0c816124cf565b82525050565b6000611d1d826123ef565b611d27818561242a565b9350611d32836123cf565b8060005b83811015611d63578151611d4a8882611cc8565b9750611d5583612410565b925050600181019050611d36565b5085935050505092915050565b6000611d7b826123fa565b611d85818561243b565b935083602082028501611d97856123df565b8060005b85811015611dd35784840389528151611db48582611ce0565b9450611dbf8361241d565b925060208a01995050600181019050611d9b565b50829750879550505050505092915050565b6000611df082612405565b611dfa818561244c565b9350611e0a81856020860161251a565b611e1381612655565b840191505092915050565b6000611e2982612405565b611e33818561245d565b9350611e4381856020860161251a565b611e4c81612655565b840191505092915050565b6000611e6282612405565b611e6c818561246e565b9350611e7c81856020860161251a565b80840191505092915050565b6000611e95602d8361245d565b91507f4f6e6c7920636f6e7472616374206f776e65722063616e20757064617465206c60008301527f697374696e672070726963652e000000000000000000000000000000000000006020830152604082019050919050565b6000611efb60268361245d565b91507f446f6e6174696f6e20616d6f756e74206d75737420626520677265617465722060008301527f7468616e203000000000000000000000000000000000000000000000000000006020830152604082019050919050565b6000611f61602d8361245d565b91507f6f6e6c79206f776e65722063616e2063616c6c2074686973206d6574686f642060008301527f6f6e206120636f6e7472616374000000000000000000000000000000000000006020830152604082019050919050565b6000611fc760258361245d565b91507f4e6f20646f6e6174696f6e7320617661696c61626c6520666f7220776974686460008301527f726177616c0000000000000000000000000000000000000000000000000000006020830152604082019050919050565b6060820160008201516120366000850182612135565b5060208201516120496020850182611cf4565b50604082015161205c6040850182612135565b50505050565b60006101008301600083015161207b6000860182612135565b50602083015161208e6020860182611cf4565b50604083015184820360408601526120a68282611de5565b915050606083015184820360608601526120c08282611de5565b915050608083015184820360808601526120da8282611de5565b91505060a083015184820360a08601526120f48282611de5565b91505060c083015184820360c086015261210e8282611de5565b91505060e083015184820360e08601526121288282611de5565b9150508091505092915050565b61213e81612501565b82525050565b61214d81612501565b82525050565b600061215f8284611e57565b915081905092915050565b600060208201905081810360008301526121848184611d12565b905092915050565b600060208201905081810360008301526121a68184611d70565b905092915050565b600060208201905081810360008301526121c781611e88565b9050919050565b600060208201905081810360008301526121e781611eee565b9050919050565b6000602082019050818103600083015261220781611f54565b9050919050565b6000602082019050818103600083015261222781611fba565b9050919050565b60006020820190506122436000830184612144565b92915050565b600060c08201905061225e6000830189612144565b61226b6020830188611d03565b818103604083015261227d8187611e1e565b905081810360608301526122918186611e1e565b905081810360808301526122a58185611e1e565b905081810360a08301526122b98184611e1e565b9050979650505050505050565b6000610100820190506122dc600083018b612144565b6122e9602083018a611d03565b81810360408301526122fb8189611e1e565b9050818103606083015261230f8188611e1e565b905081810360808301526123238187611e1e565b905081810360a08301526123378186611e1e565b905081810360c083015261234b8185611e1e565b905081810360e083015261235f8184611e1e565b90509998505050505050505050565b6000604051905081810181811067ffffffffffffffff8211171561239557612394612626565b5b8060405250919050565b600067ffffffffffffffff8211156123ba576123b9612626565b5b601f19601f8301169050602081019050919050565b6000819050602082019050919050565b6000819050602082019050919050565b600081519050919050565b600081519050919050565b600081519050919050565b6000602082019050919050565b6000602082019050919050565b600082825260208201905092915050565b600082825260208201905092915050565b600082825260208201905092915050565b600082825260208201905092915050565b600081905092915050565b600061248482612501565b915061248f83612501565b9250827fffffffffffffffffffffffffffffffffffffffffffffffffffffffffffffffff038211156124c4576124c36125c8565b5b828201905092915050565b60006124da826124e1565b9050919050565b600073ffffffffffffffffffffffffffffffffffffffff82169050919050565b6000819050919050565b82818337600083830152505050565b60005b8381101561253857808201518184015260208101905061251d565b83811115612547576000848401525b50505050565b6000600282049050600182168061256557607f821691505b60208210811415612579576125786125f7565b5b50919050565b600061258a82612501565b91507fffffffffffffffffffffffffffffffffffffffffffffffffffffffffffffffff8214156125bd576125bc6125c8565b5b600182019050919050565b7f4e487b7100000000000000000000000000000000000000000000000000000000600052601160045260246000fd5b7f4e487b7100000000000000000000000000000000000000000000000000000000600052602260045260246000fd5b7f4e487b7100000000000000000000000000000000000000000000000000000000600052604160045260246000fd5b6000601f19601f8301169050919050565b61266f816124cf565b811461267a57600080fd5b50565b61268681612501565b811461269157600080fd5b5056fea2646970667358221220bf279f9bdf4bc14fb6599d0dec1cdcef3f058162d9edf514522ec7c1868898c564736f6c63430008000033",
  "linkReferences": {},
  "deployedLinkReferences": {}
}